:100000000C940D010C9435010C9435010C943501C0
:100010000C9435010C9435010C9435010C94350188
:100020000C9435010C9435010C9435010C94350178
:100030000C9435010C9435010C9435010C94350168
:100040000C94EF030C9435010C94BD030C949703AE
:100050000C9435010C9435010C9435010C94350148
:100060000C9435010C94350108000000BE9224491F
:10007000123EABAAAA2ABECDCCCC4C3E00000080DA
:10008000BEABAAAAAA3E00000000BF000000803F4D
:100090000000000000084178D3BB4387D1133D190D
:1000A0000E3CC3BD4282AD2B3E68EC8276BED98F3A
:1000B000E1A93E4C80EFFFBE01C4FF7F3F0000007E
:1000C000000000407A10F35A00A0724E1809001088
:1000D000A5D4E80000E87648170000E40B540200BD
:1000E00000CA9A3B000000E1F505000080969800E8
:1000F000000040420F000000A08601000000102711
:1001000000000000E80300000000640000000000A0
:100110000A00000000000100000000002C76D888D2
:10012000DC674F0823DFC1DFAE59E1B1B796E5E3E5
:10013000E453C63AE651997696E8E6C28426EB89FE
:100140008C9B62ED407C6FFCEFBC9C9F40F2BAA59B
:100150006FA5F490055A2AF75C936B6CF9676DC133
:100160001BFCE0E40D47FEF520E6B500D0ED902E37
:100170000300943577050080841E080000204E0A95
:10018000000000C80C333333330F986E12831141D3
:10019000EF8D2114893BE65516CFFEE6DB18D1849E
:1001A0004B381BF77C1D901DA4BBE42420328472C5
:1001B0005E228100C9F124ECA1E53D27000000008A
:1001C000250028002B0000000000240027002A0042
:1001D0000000000023002600290004040404040495
:1001E00004040202020202020303030303030102E6
:1001F00004081020408001020408102001020408B5
:1002000010200000000800020100000304070000A5
:100210000000000000003904110711241FBECFEFB9
:10022000D8E0DEBFCDBF21E0A4E4B1E001C01D9263
:10023000AA3FB207E1F711E0A0E0B1E0E4E7FCE19A
:1002400002C005900D92A434B107D9F711E0CCE0BB
:10025000D1E004C02197FE010E94350CCB30D107BC
:10026000C9F70E9472040C942D0E0C94000008959E
:10027000AF92BF92CF92DF92EF92FF920F931F93B4
:10028000CF93DF936C017B018B01040F151FEB01F2
:100290005E01AE18BF08C017D10759F06991D601A9
:1002A000ED91FC910190F081E02DC6010995892B1B
:1002B00079F7C501DF91CF911F910F91FF90EF90DA
:1002C000DF90CF90BF90AF900895FC01538D448D87
:1002D000252F30E0842F90E0821B930B541710F0F1
:1002E000CF96089501970895FC01918D828D9817FE
:1002F00061F0A28DAE0FBF2FB11D5D968C91928DD6
:100300009F5F9F73928F90E008958FEF9FEF089506
:100310002FB7F89480914F0190915001A091510115
:10032000B09152012FBF80935B0190935C01A09329
:100330005D01B0935E0183E591E00E94740197FF37
:1003400026C02FB7F89480914F0190915001A09151
:100350005101B09152012FBF40915B0150915C015E
:1003600060915D0170915E01841B950BA60BB70B2C
:1003700040915701509158016091590170915A0173
:1003800084179507A607B707B0F28FEF9FEF089580
:10039000FC01918D828D981731F0828DE80FF11D4F
:1003A000858D90E008958FEF9FEF0895FC01918D6A
:1003B000228D892F90E0805C9F4F821B91098F7363
:1003C0009927089583E591E00E94D60121E0892BC9
:1003D00009F420E0822F089580E090E0892B29F035
:1003E0000E94E20181110C9400000895FC01A48D8B
:1003F000A80FB92FB11DA35ABF4F2C91848D90E047
:1004000001968F739927848FA689B7892C93A08929
:10041000B1898C91837080648C93938D848D9813B3
:1004200006C00288F389E02D80818F7D8083089546
:10043000EF92FF920F931F93CF93DF93EC0181E034
:10044000888F9B8D8C8D98131AC0E889F9898081DB
:1004500085FF15C09FB7F894EE89FF896083E8890E
:10046000F98980818370806480839FBF81E090E000
:10047000DF91CF911F910F91FF90EF900895F62E8D
:100480000B8D10E00F5F1F4F0F731127E02E8C8D27
:100490008E110CC00FB607FCFACFE889F98980816C
:1004A00085FFF5CFCE010E94F601F1CFEB8DEC0F69
:1004B000FD2FF11DE35AFF4FF0829FB7F8940B8F89
:1004C000EA89FB8980818062CFCFCF93DF93EC01F3
:1004D000888D8823B9F0AA89BB89E889F9898C912C
:1004E00085FD03C0808186FD0DC00FB607FCF7CFE8
:1004F0008C9185FFF2CF808185FFEDCFCE010E94E8
:10050000F601E9CFDF91CF910895833081F028F48F
:10051000813099F08230A9F008958730A9F08830B1
:10052000C9F08430B1F4809180008F7D03C0809148
:1005300080008F7780938000089584B58F7784BD85
:10054000089584B58F7DFBCF8091B0008F77809325
:10055000B00008958091B0008F7DF9CF1F93CF93A5
:10056000DF93282F30E0F901EE5FFD4F8491F90110
:10057000E251FE4FD491F901E652FE4FC491CC23D3
:10058000A9F0162F81110E948502EC2FF0E0EE0FEA
:10059000FF1FE454FE4FA591B4918FB7F894EC91EE
:1005A000111108C0D095DE23DC938FBFDF91CF916E
:1005B0001F910895DE2BF8CF42E050E068E171E032
:1005C00083E591E00C943801CF93DF93FC014481E3
:1005D00055816081718183E591E00E943801EC01D1
:1005E0000E94DC028C0F9D1FDF91CF910895CF9365
:1005F000DF93EC0188819981009711F00E94D70C5C
:10060000198218821D821C821B821A82DF91CF916F
:100610000895FC0180819181009711F00C94D70C12
:1006200008950F931F93CF93DF93EC0188819981F5
:10063000009759F02A813B812617370730F081E077
:10064000DF91CF911F910F9108958B016F5F7F4FC5
:100650000E94600D009759F0998388831B830A8359
:100660002C813D81232B59F7FC011082E8CF80E0DB
:10067000E7CFEF92FF920F931F93CF93DF93EC019D
:10068000FB01E080F180E114F10411F10481158196
:1006900001151105A9F08C819D81080F191FB80162
:1006A000CE010E941103882399F0288139818C8121
:1006B0009D81B701820F931F0E94260E1D830C831C
:1006C000CE01DF91CF911F910F91FF90EF90089590
:1006D000CE010E94F702F4CFEF92FF920F931F9387
:1006E000CF93DF93EC017B018A01BA010E941103D1
:1006F00081110BC0CE010E94F702CE01DF91CF9194
:100700001F910F91FF90EF9008951D830C83B70107
:10071000888199810E94260EF0CFFB010190002074
:10072000E9F73197AF01461B570B0C946C031F92EE
:100730000F920FB60F9211242F933F934F935F9315
:100740006F937F938F939F93AF93BF93EF93FF9399
:1007500083E591E00E94F601FF91EF91BF91AF9187
:100760009F918F917F916F915F914F913F912F91C9
:100770000F900FBE0F901F9018951F920F920FB6FB
:100780000F9211242F938F939F93EF93FF93E091F8
:100790006301F09164018081E0916901F0916A0147
:1007A00082FD1BC0908180916C018F5F8F732091BF
:1007B0006D01821741F0E0916C01F0E0ED5AFE4FBF
:1007C000958F80936C01FF91EF919F918F912F9165
:1007D0000F900FBE0F901F9018958081F4CF1F923D
:1007E0000F920FB60F9211242F933F938F939F93E5
:1007F000AF93BF9380914F0190915001A09151010F
:10080000B09152013091480123E0230F2D3758F564
:100810000196A11DB11D2093480180934F01909333
:100820005001A0935101B0935201809144019091E5
:100830004501A0914601B09147010196A11DB11D4E
:100840008093440190934501A0934601B0934701E2
:10085000BF91AF919F918F913F912F910F900FBEBC
:100860000F901F90189526E8230F0296A11DB11D29
:10087000D2CFE3E5F1E01382128288EE93E0A0E0AC
:10088000B0E084839583A683B7838AE091E0918367
:10089000808385EC90E09587848784EC90E097874F
:1008A000868780EC90E0918B808B81EC90E0938B3D
:1008B000828B82EC90E0958B848B86EC90E0978B1A
:1008C000868B118E128E138E148EE0EFF1E0118262
:1008D000108213821282158214826AE171E0CF01C4
:1008E0000C948D03CF93DF93CDB7DEB7A7970FB6E8
:1008F000F894DEBF0FBECDBF789484B5826084BD0E
:1009000084B5816084BD85B5826085BD85B5816013
:1009100085BD80916E00816080936E001092810091
:10092000809181008260809381008091810081604C
:10093000809381008091800081608093800080910D
:10094000B10084608093B1008091B0008160809399
:10095000B00080917A00846080937A0080917A0060
:10096000826080937A0080917A00816080937A001F
:1009700080917A00806880937A001092C100E091A3
:100980006301F091640182E08083E0915F01F09166
:1009900060011082E0916101F091620180E1808349
:1009A00010926B01E0916701F091680186E080830D
:1009B000E0916501F0916601808180618083E09122
:1009C0006501F0916601808188608083E091650116
:1009D000F0916601808180688083E0916501F091EB
:1009E000660180818F7D808347E050E06BE171E09C
:1009F00083E591E00E9438010E94DC02EBEFF1E018
:100A00002491E7EEF1E08491882399F090E0880F3B
:100A1000991FFC01EA53FE4FA591B491FC01E454E7
:100A2000FE4F859194918FB7F894EC91E22BEC9363
:100A30008FBF41EF242E41E0342EF10124915DED72
:100A4000C52E51E0D52EF60184918823C9F090E09F
:100A5000880F991FFC01EA53FE4FA591B491FC0148
:100A6000E454FE4F459154913FB7F8949C91822FE6
:100A7000809598239C93FA019081892380833FBFBE
:100A80009E012F5F3F4F79018FB7F89480904F01FF
:100A900090905001A0905101B09052018FBF83E51A
:100AA00091E00E94D601181619060CF095C01A8222
:100AB00019821C821B821E821D826AE171E0C701BD
:100AC0000E948D030E94880197FD1BC08AA31BA270
:100AD0006D807E803FEF631A730AB301C7010E94E5
:100AE0001103882379F329813A818D819E81BE018A
:100AF0006E5D7F4F820F931F0E94260E7E826D8255
:100B0000E1CF8091F0019091F101009709F44DC07F
:100B100069817A816115710509F445C04091F2013E
:100B20005091F3012D813E8142175307E0F10E945D
:100B3000260E8D819E819093F5018093F4011E8293
:100B40001D82C7010E9409031A8219821C821B821E
:100B50001E821D826091F0017091F1016115710595
:100B600039F04091F4015091F501C7010E946C03E6
:100B70001BA21AA21DA21CA21FA21EA263E271E068
:100B8000CE0182960E948D03B701CE0182960E940B
:100B900039030E94E402CE0182960E940903C70134
:100BA0000E9409037CCF0E94D70C89819A8190937F
:100BB000F1018093F0018B819C819093F3018093EC
:100BC000F2018D819E819093F5018093F4011A8248
:100BD00019821C821B82B3CF80914B0190914C01F2
:100BE000A0914D01B0914E01A5019401281B390B34
:100BF0004A0B5B0BDA01C901883E9340A105B105A0
:100C000008F4D8C080924B0190924C01A0924D0103
:100C1000B0924E0141E440937C0080917A00806460
:100C200080937A0080917A0086FDFCCF80917800D5
:100C300060917900762F682F072E000C880B990B96
:100C40000E94A1099B01AC0160E070EC8FE794E485
:100C50000E943E0B20E030E040E85FE30E94D10AB2
:100C600020E030E44CE156E40E94DC090E94B80B1D
:100C70002B013C011BA21AA21DA21CA21FA21EA294
:100C800029E537E44CEB53E30E94DC09A301920110
:100C90000E94DC09A30192010E94DC094B015C0166
:100CA00023E73FE745E759E3C301B2010E94DC09AE
:100CB0002BEE3FEF43E95AE30E94D20A9B01AC01BD
:100CC000C501B4010E94D20A9B01AC0160E070E052
:100CD00080E89FE30E943E0B23E333E948E853E4B6
:100CE0000E94D10A870122E044E00E941507009784
:100CF00009F492C0FC0101900020E9F73197AF019F
:100D0000481B590BBC01CE0182960E946C031A82CB
:100D100019821C821B821E821D8261E371E0C70161
:100D20000E948D03BE016E5D7F4FC7010E94390393
:100D30000E94E402C7010E940903CE0182960E942C
:100D400009038091490190914A011BA21AA21DA298
:100D50001CA21FA21EA24AE0B7010E943307F7019E
:100D600001900020E9F73197AF014E195F09B701F3
:100D7000CE0182960E946C031A8219821C821B8209
:100D80001E821D8267E371E0C7010E948D03BE01D0
:100D90006E5D7F4FC7010E9439030E94E402C701C4
:100DA0000E940903CE0182960E94090310924A0113
:100DB00010924901E5E0F2E08491F1017490F601AE
:100DC0006490662079F081110E948502E62DF0E0A2
:100DD000EE0FFF1FE053FE4FA591B4918C91782246
:100DE00060E051F48091490190914A0101969093FD
:100DF0004A018093490161E08DE00E94AE0220E04B
:100E000030E0232B09F440CE0E94E201882309F44C
:100E10003BCE0E94000038CECE0182960E94F7029F
:100E200076CF80EF91E00C940903EF920F931F931C
:100E3000CF93DF93E80134E047FD34E1042E000C4A
:100E4000550B57FF03C0519541955109E32E022FD1
:100E5000242FAE010E945807CE01DF91CF911F9140
:100E60000F91EF900895BB274A3031F4992322F473
:100E7000BDE2909581959F4F0C943F07BB27FB01E6
:100E80005527AA27880F991FAA1FA41710F0A41B83
:100E900083955051B9F7A05DAA3308F0A95DA193DD
:100EA000009779F7B111B1931192CB010C948F098E
:100EB000A9E0B0E0EEE5F7E00C94A00A6A01F22E9A
:100EC000B02E102FFBE3AF2EA01608F41BE31F5F1C
:100ED000012F27E0AE014F5F5F4F0E94B708BC01B2
:100EE0008981982F9970913009F43FC09BE2E1FC11
:100EF00004C09E2D9170E0FC3AC05E2D5071E82F29
:100F0000E87083FF46C084E0911101C083E0EF2DBB
:100F1000E81B8F1508F0E0E0D6018E2F20E2552364
:100F200051F1992329F0D6019C93C60101966C01D9
:100F300096012D5F3F4FE2FE24C08EE4D6018C93D4
:100F400091E411969C93119712968C93D9018E2F50
:100F500090E281111BC0E20FF32FF11D10828EEF82
:100F60009FEF2996ECE00C94BC0A9DE2C6CF90E27C
:100F7000C4CF2D9381508111FCCFCE0ED11CE0E067
:100F8000D0CF8EE6D6018C9391E6DBCF9D93815036
:100F9000E0CF482F447082FF3DC084E0911101C032
:100FA00083E08F1510F4EF2DE81BD6018E2F20E281
:100FB000552309F1992329F0D6019C93C601019686
:100FC0006C0196012D5F3F4FE2FE1BC089E4D60104
:100FD0008C938EE411968C93119786E412968C93E1
:100FE000D9018E2F90E2882309F4B5CF9D938150CB
:100FF000FACF2D9381508111FCCFCE0ED11CE0E0B1
:10100000D9CF89E6D6018C938EE611968C931197F1
:1010100086E6E4CF9B0177FF02C030E020E0A1E04C
:10102000B0E0911102C0B0E0A0E0F9013196AE0F3E
:10103000BF1F8B2C912CBB2009F461C05401EFEF32
:10104000AE1ABE0AAA0DBB1DFA161B0619F014F043
:101050004F2D4A1B511188C0E3FC59C07601A42FC3
:10106000B0E2A1114FC0C40ED11C992309F45BC09A
:1010700040E0D6011196F60190836D01552309F4E5
:1010800048C0012F060F9A81582F507184FF03C06A
:10109000913309F4015010160CF047C0093008F0E4
:1010A00008E0EEE2FE2E5B01A01AB10885019194E2
:1010B000819491082F3F320729F4D601FC92F60162
:1010C00031966F016217730794F1021713077CF5CD
:1010D000DB01A21BB30BAA24A394B12CAC0EBD1E42
:1010E000AA0DBB1D11968C9121503109D601119684
:1010F00028153905F4F0F60180836D01DBCFB12CA2
:10110000A12CA0CFF701B1937F01A150AACF9111DB
:10111000B0CFD601942F50E302C05D93915091114E
:10112000FCCFC40ED11C40E0ACCF01E0BACF80E3CD
:10113000DBCF6217730731F4963388F4953311F4DB
:10114000552369F0F6018083FD01842F90E281111F
:1011500008C0A40FB11D1C9290E080E002CF81E393
:10116000F1CF91938150F3CF911183CF8ACF283063
:1011700008F027E03327DA01990F311D87FD9160D0
:1011800000966105710539F432602E5F3D9330E3BE
:101190002A95E1F708959F3F30F080387105610589
:1011A00009F03C5F3C5F3D93913008F08068911DF1
:1011B000DF93CF931F930F93FF92EF92192F987F96
:1011C0009695E92F96959695E90FFF27E45EFE4FD9
:1011D00099273327EE24FF24A701E70105900894FF
:1011E000079428F4360FE71EF81E491F511D660F9D
:1011F000771F881F991F0694A1F70590079428F47C
:10120000E70EF81E491F561FC11D770F881F991F33
:10121000661F0694A1F70590079428F4F80E491F5D
:10122000561FC71FD11D880F991F661F771F069471
:10123000A1F70590079420F4490F561FC71FD81F28
:10124000990F661F771F881F0694A9F78491109540
:10125000177041F0D695C79557954795F794E79441
:101260001A95C1F7E2ECF0E068941590159135916C
:101270006591959105907FE27395E118F10A430B12
:10128000560BC90BD009C0F7E10CF11E431F561FC6
:10129000C91FD01D7EF4703311F48A95E6CFE8940F
:1012A000015030F0080F0AF40027021708F4202F2D
:1012B0002395022F7A3328F079E37D932A95E9F775
:1012C00010C07D932A9589F6069497956795379572
:1012D00017951794E118F10A430B560BC90BD00967
:1012E00098F023957E9173957A3308F070E37C93A0
:1012F0002013B8F77E9170617D9330F0839571E390
:101300007D9370E32A95E1F71124EF90FF900F9100
:101310001F91CF91DF91992787FD90950895DC016A
:10132000FC01672F71917723E1F7329704C07C911C
:101330006D9370836291AE17BF07C8F30895E89468
:1013400009C097FB3EF490958095709561957F4F0D
:101350008F4F9F4F9923A9F0F92F96E9BB279395BB
:10136000F695879577956795B795F111F8CFFAF4CB
:10137000BB0F11F460FF1BC06F5F7F4F8F4F9F4FFC
:1013800016C0882311F096E911C0772321F09EE85A
:10139000872F762F05C0662371F096E8862F70E0C0
:1013A00060E02AF09A95660F771F881FDAF7880F9A
:1013B0009695879597F908950E94EF090C94600A15
:1013C0000E94520A38F00E94590A20F0952311F029
:1013D0000C94490A0C944F0A11240C94940A0E940C
:1013E000710A70F3959FC1F3950F50E0551F629FEE
:1013F000F001729FBB27F00DB11D639FAA27F00D6E
:10140000B11DAA1F649F6627B00DA11D661F829F94
:101410002227B00DA11D621F739FB00DA11D621F79
:10142000839FA00D611D221F749F3327A00D611D96
:10143000231F849F600D211D822F762F6A2F112478
:101440009F5750409AF0F1F088234AF0EE0FFF1FAB
:10145000BB1F661F771F881F91505040A9F79E3F02
:10146000510580F00C94490A0C94940A5F3FE4F310
:10147000983ED4F3869577956795B795F795E79558
:101480009F5FC1F7FE2B880F911D9695879597F961
:10149000089597F99F6780E870E060E008959FEFF6
:1014A00080EC089500240A941616170618060906FB
:1014B000089500240A9412161306140605060895CA
:1014C000092E0394000C11F4882352F0BB0F40F452
:1014D000BF2B11F460FF04C06F5F7F4F8F4F9F4F92
:1014E000089557FD9058440F551F59F05F3F71F014
:1014F0004795880F97FB991F61F09F3F79F087957B
:101500000895121613061406551FF2CF4695F1DF03
:1015100008C0161617061806991FF1CF8695710593
:10152000610508940895E894BB2766277727CB01C7
:1015300097F908952F923F924F925F926F927F9208
:101540008F929F92AF92BF92CF92DF92EF92FF92D3
:101550000F931F93CF93DF93CDB7DEB7CA1BDB0B7F
:101560000FB6F894DEBF0FBECDBF09942A88398824
:1015700048885F846E847D848C849B84AA84B9842B
:10158000C884DF80EE80FD800C811B81AA81B98137
:10159000CE0FD11D0FB6F894DEBF0FBECDBFED014B
:1015A00008955058BB27AA270E94E90A0C94600AA4
:1015B0000E94520A38F00E94590A20F039F49F3FE5
:1015C00019F426F40C944F0A0EF4E095E7FB0C9402
:1015D000490AE92F0E94710A58F3BA176207730784
:1015E0008407950720F079F4A6F50C94930A0EF47D
:1015F000E0950B2EBA2FA02D0B01B90190010C0123
:10160000CA01A0011124FF27591B99F0593F50F43A
:10161000503E68F11A16F040A22F232F342F442792
:10162000585FF3CF469537952795A795F04053958A
:10163000C9F77EF41F16BA0B620B730B840BBAF05A
:101640009150A1F0FF0FBB1F661F771F881FC2F7C5
:101650000EC0BA0F621F731F841F48F487957795D9
:101660006795B795F7959E3F08F0B0CF9395880F93
:1016700008F09927EE0F9795879508950E94520BD1
:101680000C94600A0E94590A58F00E94520A40F0D5
:1016900029F45F3F29F00C94490A51110C94940AE3
:1016A0000C944F0A0E94710A68F39923B1F35523F1
:1016B00091F3951B550BBB27AA2762177307840765
:1016C00038F09F5F5F4F220F331F441FAA1FA9F3FB
:1016D00035D00E2E3AF0E0E832D091505040E695E9
:1016E000001CCAF72BD0FE2F29D0660F771F881F4A
:1016F000BB1F261737074807AB07B0E809F0BB0B3D
:10170000802DBF01FF2793585F4F3AF09E3F510550
:1017100078F00C94490A0C94940A5F3FE4F3983EE5
:10172000D4F3869577956795B795F7959F5FC9F739
:10173000880F911D9695879597F90895E1E0660FBA
:10174000771F881FBB1F621773078407BA0720F033
:10175000621B730B840BBA0BEE1F88F7E09508959C
:1017600016F00C94000C0C944F0A68940C94490ADF
:101770000E94790AA8F39923C1F3AEF3DF93CF93C4
:101780001F930F93FF92C92FDD2788232AF02197FB
:10179000660F771F881FDAF720E030E040E85FEB44
:1017A0009FE3883920F0803E38F021968F770E94A1
:1017B000D20AE8E6F0E004C00E94D20AE5E9F0E0CF
:1017C0000E940E0C8B01BE01EC01FB2E6F577109BC
:1017D0007595771F880B990B0E94A10928E132E7C4
:1017E00041E35FE30E94EF09AF2D9801AE01FF9046
:1017F0000F911F91CF91DF910E94E90A0C94600A2A
:101800009F3F31F0915020F4879577956795B79574
:10181000880F911D9695879597F90895DF93CF933B
:101820001F930F93FF92EF92DF927B018C016894DC
:1018300006C0DA2EEF010E94EF09FE01E894A5919F
:101840002591359145915591A6F3EF010E94E90A42
:10185000FE019701A801DA9469F7DF90EF90FF90FD
:101860000F911F91CF91DF910895EE0FFF1F05900B
:10187000F491E02D09940F931F93CF93DF9382305F
:10188000910510F482E090E0E091F801F091F90107
:1018900030E020E0B0E0A0E0309799F42115310568
:1018A00009F44AC0281B390B24303105D8F58A8148
:1018B0009B816115710589F1FB0193838283FE0190
:1018C00011C0408151810281138148175907E0F00E
:1018D0004817590799F4109761F012960C931297D4
:1018E00013961C933296CF01DF91CF911F910F91E8
:1018F00008950093F8011093F901F4CF21153105F3
:1019000051F04217530738F0A901DB019A01BD01DC
:10191000DF01F801C1CFEF01F9CF9093F901809376
:10192000F801CDCFFE01E20FF31F81939193225076
:10193000310939832883D7CF2091F6013091F701FF
:10194000232B41F420910201309103013093F701E0
:101950002093F601209100013091010121153105FC
:1019600041F42DB73EB74091040150910501241B6D
:10197000350BE091F601F091F701E217F307A0F4BF
:101980002E1B3F0B2817390778F0AC014E5F5F4FD5
:101990002417350748F04E0F5F1F5093F70140930F
:1019A000F601819391939FCFF0E0E0E09CCFCF933D
:1019B000DF930097E9F0FC01329713821282A09125
:1019C000F801B091F901ED0130E020E01097A1F4A9
:1019D00020813181820F931F2091F6013091F70110
:1019E0002817390709F061C0F093F701E093F60179
:1019F000DF91CF910895EA01CE17DF07E8F54A811C
:101A00005B819E0141155105B1F7E901FB83EA8332
:101A100049915991C40FD51FEC17FD0761F48081DE
:101A200091810296840F951FE901998388838281B1
:101A300093819B838A83F0E0E0E012968D919C91E4
:101A400013970097B9F52D913C911197CD0102960E
:101A5000820F931F2091F6013091F7012817390763
:101A600039F6309751F51092F9011092F801B093C0
:101A7000F701A093F601BCCFD383C283408151818B
:101A8000840F951FC817D90761F44E5F5F4F888197
:101A90009981480F591F518340838A819B81938389
:101AA00082832115310509F0B0CFF093F901E0935D
:101AB000F8019ECFFD01DC01C0CF13821282D7CF87
:101AC000B0E0A0E0E6E6FDE00C949C0A8C010097F3
:101AD00051F4CB010E943B0C8C01C801CDB7DEB79D
:101AE000E0E10C94B80AFC01E60FF71F9C012250BC
:101AF0003109E217F30708F49DC0D901CD91DC91BB
:101B00001197C617D70798F0C530D10530F3CE012D
:101B100004978617970708F3C61BD70B2297C19324
:101B2000D1936D937C93CF010E94D70CD6CF5B01EC
:101B3000AC1ABD0A4C018C0E9D1EA091F801B0910B
:101B4000F901512C412CF12CE12C109731F58091A9
:101B5000F6019091F7018815990509F05CC04616C9
:101B6000570608F058C0809100019091010100973C
:101B700041F48DB79EB74091040150910501841B3B
:101B8000950BE817F90708F055C0F093F701E093BB
:101B9000F601F90171836083A0CF8D919C9111971B
:101BA00012966C90129713967C901397A815B9050E
:101BB00059F56C0142E0C40ED11CCA14DB0420F1BB
:101BC000AC014A195B09DA011296159780F062821E
:101BD000738251834083D9016D937C93E114F104A6
:101BE00071F0D7011396FC93EE93129776CF22965D
:101BF0008C0F9D1FF90191838083F301EFCFF09348
:101C0000F901E093F80169CF4816590608F42C0150
:101C10007D01D3019ACFCB010E943B0C7C01009740
:101C200049F0AE01B8010E941D0EC8010E94D70CF8
:101C3000870153CF10E000E050CFFB01DC0102C070
:101C400001900D9241505040D8F70895FB01DC01FE
:101C500001900D920020E1F7089511E0CCE0D1E071
:101C600004C0FE010E94350C2196CD30D107C9F782
:041C7000F894FFCF16
:101C74000000FA018000000000001802380165012C
:101C84006502D6017401C8010D0A0052756E6E69B1
:101C94006E6700556E6B6E6F776E20696E7075742B
:101CA4000074656D703A00766962726174696F6E72
:041CB400733A00007F
:107E0000112484B714BE81FFF0D085E080938100F7
:107E100082E08093C00088E18093C10086E0809377
:107E2000C20080E18093C4008EE0C9D0259A86E02C
:107E300020E33CEF91E0309385002093840096BBD3
:107E4000B09BFECF1D9AA8958150A9F7CC24DD24C4
:107E500088248394B5E0AB2EA1E19A2EF3E0BF2EE7
:107E6000A2D0813461F49FD0082FAFD0023811F036
:107E7000013811F484E001C083E08DD089C08234E0
:107E800011F484E103C0853419F485E0A6D080C0E4
:107E9000853579F488D0E82EFF2485D0082F10E0AE
:107EA000102F00270E291F29000F111F8ED06801E7
:107EB0006FC0863521F484E090D080E0DECF843638
:107EC00009F040C070D06FD0082F6DD080E0C81688
:107ED00080E7D80618F4F601B7BEE895C0E0D1E017
:107EE00062D089930C17E1F7F0E0CF16F0E7DF06D8
:107EF00018F0F601B7BEE89568D007B600FCFDCFD4
:107F0000A601A0E0B1E02C9130E011968C91119780
:107F100090E0982F8827822B932B1296FA010C0160
:107F200087BEE89511244E5F5F4FF1E0A038BF0790
:107F300051F7F601A7BEE89507B600FCFDCF97BE46
:107F4000E89526C08437B1F42ED02DD0F82E2BD052
:107F50003CD0F601EF2C8F010F5F1F4F84911BD097
:107F6000EA94F801C1F70894C11CD11CFA94CF0C13
:107F7000D11C0EC0853739F428D08EE10CD085E9AC
:107F80000AD08FE07ACF813511F488E018D01DD067
:107F900080E101D065CF982F8091C00085FFFCCF94
:107FA0009093C60008958091C00087FFFCCF809118
:107FB000C00084FD01C0A8958091C6000895E0E648
:107FC000F0E098E1908380830895EDDF803219F02E
:107FD00088E0F5DFFFCF84E1DECF1F93182FE3DFCA
:107FE0001150E9F7F2DF1F91089580E0E8DFEE27F6
:047FF000FF270994CA
:027FFE00040479
:0400000300007E007B
:00000001FF
